{
  "contractName": "Orbs",
  "abi": [
    {
      "inputs": [],
      "stateMutability": "nonpayable",
      "type": "constructor"
    },
    {
      "anonymous": false,
      "inputs": [
        {
          "indexed": true,
          "internalType": "address",
          "name": "owner",
          "type": "address"
        },
        {
          "indexed": true,
          "internalType": "address",
          "name": "approved",
          "type": "address"
        },
        {
          "indexed": true,
          "internalType": "uint256",
          "name": "tokenId",
          "type": "uint256"
        }
      ],
      "name": "Approval",
      "type": "event"
    },
    {
      "anonymous": false,
      "inputs": [
        {
          "indexed": true,
          "internalType": "address",
          "name": "owner",
          "type": "address"
        },
        {
          "indexed": true,
          "internalType": "address",
          "name": "operator",
          "type": "address"
        },
        {
          "indexed": false,
          "internalType": "bool",
          "name": "approved",
          "type": "bool"
        }
      ],
      "name": "ApprovalForAll",
      "type": "event"
    },
    {
      "anonymous": false,
      "inputs": [
        {
          "indexed": true,
          "internalType": "address",
          "name": "from",
          "type": "address"
        },
        {
          "indexed": true,
          "internalType": "address",
          "name": "to",
          "type": "address"
        },
        {
          "indexed": true,
          "internalType": "uint256",
          "name": "tokenId",
          "type": "uint256"
        }
      ],
      "name": "Transfer",
      "type": "event"
    },
    {
      "inputs": [
        {
          "internalType": "address",
          "name": "to",
          "type": "address"
        },
        {
          "internalType": "uint256",
          "name": "tokenId",
          "type": "uint256"
        }
      ],
      "name": "approve",
      "outputs": [],
      "stateMutability": "nonpayable",
      "type": "function"
    },
    {
      "inputs": [
        {
          "internalType": "address",
          "name": "owner",
          "type": "address"
        }
      ],
      "name": "balanceOf",
      "outputs": [
        {
          "internalType": "uint256",
          "name": "",
          "type": "uint256"
        }
      ],
      "stateMutability": "view",
      "type": "function",
      "constant": true
    },
    {
      "inputs": [
        {
          "internalType": "uint256",
          "name": "tokenId",
          "type": "uint256"
        }
      ],
      "name": "getApproved",
      "outputs": [
        {
          "internalType": "address",
          "name": "",
          "type": "address"
        }
      ],
      "stateMutability": "view",
      "type": "function",
      "constant": true
    },
    {
      "inputs": [
        {
          "internalType": "address",
          "name": "owner",
          "type": "address"
        },
        {
          "internalType": "address",
          "name": "operator",
          "type": "address"
        }
      ],
      "name": "isApprovedForAll",
      "outputs": [
        {
          "internalType": "bool",
          "name": "",
          "type": "bool"
        }
      ],
      "stateMutability": "view",
      "type": "function",
      "constant": true
    },
    {
      "inputs": [],
      "name": "name",
      "outputs": [
        {
          "internalType": "string",
          "name": "",
          "type": "string"
        }
      ],
      "stateMutability": "view",
      "type": "function",
      "constant": true
    },
    {
      "inputs": [
        {
          "internalType": "uint256",
          "name": "tokenId",
          "type": "uint256"
        }
      ],
      "name": "ownerOf",
      "outputs": [
        {
          "internalType": "address",
          "name": "",
          "type": "address"
        }
      ],
      "stateMutability": "view",
      "type": "function",
      "constant": true
    },
    {
      "inputs": [
        {
          "internalType": "address",
          "name": "from",
          "type": "address"
        },
        {
          "internalType": "address",
          "name": "to",
          "type": "address"
        },
        {
          "internalType": "uint256",
          "name": "tokenId",
          "type": "uint256"
        }
      ],
      "name": "safeTransferFrom",
      "outputs": [],
      "stateMutability": "nonpayable",
      "type": "function"
    },
    {
      "inputs": [
        {
          "internalType": "address",
          "name": "from",
          "type": "address"
        },
        {
          "internalType": "address",
          "name": "to",
          "type": "address"
        },
        {
          "internalType": "uint256",
          "name": "tokenId",
          "type": "uint256"
        },
        {
          "internalType": "bytes",
          "name": "_data",
          "type": "bytes"
        }
      ],
      "name": "safeTransferFrom",
      "outputs": [],
      "stateMutability": "nonpayable",
      "type": "function"
    },
    {
      "inputs": [
        {
          "internalType": "address",
          "name": "operator",
          "type": "address"
        },
        {
          "internalType": "bool",
          "name": "approved",
          "type": "bool"
        }
      ],
      "name": "setApprovalForAll",
      "outputs": [],
      "stateMutability": "nonpayable",
      "type": "function"
    },
    {
      "inputs": [
        {
          "internalType": "bytes4",
          "name": "interfaceId",
          "type": "bytes4"
        }
      ],
      "name": "supportsInterface",
      "outputs": [
        {
          "internalType": "bool",
          "name": "",
          "type": "bool"
        }
      ],
      "stateMutability": "view",
      "type": "function",
      "constant": true
    },
    {
      "inputs": [],
      "name": "symbol",
      "outputs": [
        {
          "internalType": "string",
          "name": "",
          "type": "string"
        }
      ],
      "stateMutability": "view",
      "type": "function",
      "constant": true
    },
    {
      "inputs": [
        {
          "internalType": "uint256",
          "name": "tokenId",
          "type": "uint256"
        }
      ],
      "name": "tokenURI",
      "outputs": [
        {
          "internalType": "string",
          "name": "",
          "type": "string"
        }
      ],
      "stateMutability": "view",
      "type": "function",
      "constant": true
    },
    {
      "inputs": [
        {
          "internalType": "address",
          "name": "from",
          "type": "address"
        },
        {
          "internalType": "address",
          "name": "to",
          "type": "address"
        },
        {
          "internalType": "uint256",
          "name": "tokenId",
          "type": "uint256"
        }
      ],
      "name": "transferFrom",
      "outputs": [],
      "stateMutability": "nonpayable",
      "type": "function"
    },
    {
      "stateMutability": "payable",
      "type": "receive",
      "payable": true
    },
    {
      "inputs": [],
      "name": "getAllOrbs",
      "outputs": [
        {
          "components": [
            {
              "internalType": "uint256",
              "name": "id",
              "type": "uint256"
            },
            {
              "internalType": "address",
              "name": "owner",
              "type": "address"
            },
            {
              "internalType": "uint256",
              "name": "price",
              "type": "uint256"
            },
            {
              "internalType": "string",
              "name": "uri",
              "type": "string"
            }
          ],
          "internalType": "struct Orbs.OrbProps[]",
          "name": "",
          "type": "tuple[]"
        }
      ],
      "stateMutability": "view",
      "type": "function",
      "constant": true
    },
    {
      "inputs": [
        {
          "internalType": "uint256",
          "name": "tokenId",
          "type": "uint256"
        },
        {
          "internalType": "uint256",
          "name": "_price",
          "type": "uint256"
        }
      ],
      "name": "setTokenPrice",
      "outputs": [],
      "stateMutability": "nonpayable",
      "type": "function"
    },
    {
      "inputs": [
        {
          "internalType": "address",
          "name": "_owner",
          "type": "address"
        },
        {
          "internalType": "string",
          "name": "_tokenURI",
          "type": "string"
        }
      ],
      "name": "mintCollectable",
      "outputs": [
        {
          "internalType": "uint256",
          "name": "",
          "type": "uint256"
        }
      ],
      "stateMutability": "payable",
      "type": "function",
      "payable": true
    }
  ],
  "bytecode": "0x60806040523480156200001157600080fd5b506040518060400160405280600481526020017f4f726273000000000000000000000000000000000000000000000000000000008152506040518060400160405280600481526020017f4f52425300000000000000000000000000000000000000000000000000000000815250816000908051906020019062000096929190620000b8565b508060019080519060200190620000af929190620000b8565b505050620001cd565b828054620000c69062000168565b90600052602060002090601f016020900481019282620000ea576000855562000136565b82601f106200010557805160ff191683800117855562000136565b8280016001018555821562000136579182015b828111156200013557825182559160200191906001019062000118565b5b50905062000145919062000149565b5090565b5b80821115620001645760008160009055506001016200014a565b5090565b600060028204905060018216806200018157607f821691505b602082108114156200019857620001976200019e565b5b50919050565b7f4e487b7100000000000000000000000000000000000000000000000000000000600052602260045260246000fd5b61306780620001dd6000396000f3fe6080604052600436106100f75760003560e01c8063728b6fc71161008a578063c87b56dd11610059578063c87b56dd14610345578063e4fd153814610382578063e985e9c5146103b2578063eb685c47146103ef576100fe565b8063728b6fc71461029d57806395d89b41146102c8578063a22cb465146102f3578063b88d4fde1461031c576100fe565b806323b872dd116100c657806323b872dd146101d157806342842e0e146101fa5780636352211e1461022357806370a0823114610260576100fe565b806301ffc9a71461010357806306fdde0314610140578063081812fc1461016b578063095ea7b3146101a8576100fe565b366100fe57005b600080fd5b34801561010f57600080fd5b5061012a60048036038101906101259190611f8a565b610418565b6040516101379190612955565b60405180910390f35b34801561014c57600080fd5b506101556104fa565b6040516101629190612970565b60405180910390f35b34801561017757600080fd5b50610192600480360381019061018d9190611fdc565b61058c565b60405161019f91906128cc565b60405180910390f35b3480156101b457600080fd5b506101cf60048036038101906101ca9190611f4e565b610611565b005b3480156101dd57600080fd5b506101f860048036038101906101f39190611df4565b610729565b005b34801561020657600080fd5b50610221600480360381019061021c9190611df4565b610789565b005b34801561022f57600080fd5b5061024a60048036038101906102459190611fdc565b6107a9565b60405161025791906128cc565b60405180910390f35b34801561026c57600080fd5b5061028760048036038101906102829190611d8f565b61085b565b6040516102949190612bb2565b60405180910390f35b3480156102a957600080fd5b506102b2610913565b6040516102bf9190612933565b60405180910390f35b3480156102d457600080fd5b506102dd610a95565b6040516102ea9190612970565b60405180910390f35b3480156102ff57600080fd5b5061031a60048036038101906103159190611ebe565b610b27565b005b34801561032857600080fd5b50610343600480360381019061033e9190611e43565b610ca8565b005b34801561035157600080fd5b5061036c60048036038101906103679190611fdc565b610d0a565b6040516103799190612970565b60405180910390f35b61039c60048036038101906103979190611efa565b610e5c565b6040516103a99190612bb2565b60405180910390f35b3480156103be57600080fd5b506103d960048036038101906103d49190611db8565b610eaa565b6040516103e69190612955565b60405180910390f35b3480156103fb57600080fd5b5061041660048036038101906104119190612005565b610f3e565b005b60007f80ac58cd000000000000000000000000000000000000000000000000000000007bffffffffffffffffffffffffffffffffffffffffffffffffffffffff1916827bffffffffffffffffffffffffffffffffffffffffffffffffffffffff191614806104e357507f5b5e139f000000000000000000000000000000000000000000000000000000007bffffffffffffffffffffffffffffffffffffffffffffffffffffffff1916827bffffffffffffffffffffffffffffffffffffffffffffffffffffffff1916145b806104f357506104f282610fa2565b5b9050919050565b60606000805461050990612e5c565b80601f016020809104026020016040519081016040528092919081815260200182805461053590612e5c565b80156105825780601f1061055757610100808354040283529160200191610582565b820191906000526020600020905b81548152906001019060200180831161056557829003601f168201915b5050505050905090565b60006105978261100c565b6105d6576040517f08c379a00000000000000000000000000000000000000000000000000000000081526004016105cd90612af2565b60405180910390fd5b6004600083815260200190815260200160002060009054906101000a900473ffffffffffffffffffffffffffffffffffffffff169050919050565b600061061c826107a9565b90508073ffffffffffffffffffffffffffffffffffffffff168373ffffffffffffffffffffffffffffffffffffffff16141561068d576040517f08c379a000000000000000000000000000000000000000000000000000000000815260040161068490612b72565b60405180910390fd5b8073ffffffffffffffffffffffffffffffffffffffff166106ac611078565b73ffffffffffffffffffffffffffffffffffffffff1614806106db57506106da816106d5611078565b610eaa565b5b61071a576040517f08c379a000000000000000000000000000000000000000000000000000000000815260040161071190612a32565b60405180910390fd5b6107248383611080565b505050565b61073a610734611078565b82611139565b610779576040517f08c379a000000000000000000000000000000000000000000000000000000000815260040161077090612b92565b60405180910390fd5b610784838383611217565b505050565b6107a483838360405180602001604052806000815250610ca8565b505050565b6000806002600084815260200190815260200160002060009054906101000a900473ffffffffffffffffffffffffffffffffffffffff169050600073ffffffffffffffffffffffffffffffffffffffff168173ffffffffffffffffffffffffffffffffffffffff161415610852576040517f08c379a000000000000000000000000000000000000000000000000000000000815260040161084990612a72565b60405180910390fd5b80915050919050565b60008073ffffffffffffffffffffffffffffffffffffffff168273ffffffffffffffffffffffffffffffffffffffff1614156108cc576040517f08c379a00000000000000000000000000000000000000000000000000000000081526004016108c390612a52565b60405180910390fd5b600360008373ffffffffffffffffffffffffffffffffffffffff1673ffffffffffffffffffffffffffffffffffffffff168152602001908152602001600020549050919050565b606060006109216007611473565b67ffffffffffffffff811115610960577f4e487b7100000000000000000000000000000000000000000000000000000000600052604160045260246000fd5b60405190808252806020026020018201604052801561099957816020015b610986611b75565b81526020019060019003908161097e5790505b509050600080600190505b60016109b06007611473565b6109ba9190612ceb565b811015610a8c5760006109cc826107a9565b9050600060405180608001604052808481526020018373ffffffffffffffffffffffffffffffffffffffff16815260200160086000868152602001908152602001600020548152602001610a1f85610d0a565b815250905080858581518110610a5e577f4e487b7100000000000000000000000000000000000000000000000000000000600052603260045260246000fd5b60200260200101819052508380610a7490612e8e565b94505050508080610a8490612e8e565b9150506109a4565b50819250505090565b606060018054610aa490612e5c565b80601f0160208091040260200160405190810160405280929190818152602001828054610ad090612e5c565b8015610b1d5780601f10610af257610100808354040283529160200191610b1d565b820191906000526020600020905b815481529060010190602001808311610b0057829003601f168201915b5050505050905090565b610b2f611078565b73ffffffffffffffffffffffffffffffffffffffff168273ffffffffffffffffffffffffffffffffffffffff161415610b9d576040517f08c379a0000000000000000000000000000000000000000000000000000000008152600401610b94906129f2565b60405180910390fd5b8060056000610baa611078565b73ffffffffffffffffffffffffffffffffffffffff1673ffffffffffffffffffffffffffffffffffffffff16815260200190815260200160002060008473ffffffffffffffffffffffffffffffffffffffff1673ffffffffffffffffffffffffffffffffffffffff16815260200190815260200160002060006101000a81548160ff0219169083151502179055508173ffffffffffffffffffffffffffffffffffffffff16610c57611078565b73ffffffffffffffffffffffffffffffffffffffff167f17307eab39ab6107e8899845ad3d59bd9653f200f220920489ca2b5937696c3183604051610c9c9190612955565b60405180910390a35050565b610cb9610cb3611078565b83611139565b610cf8576040517f08c379a0000000000000000000000000000000000000000000000000000000008152600401610cef90612b92565b60405180910390fd5b610d0484848484611481565b50505050565b6060610d158261100c565b610d54576040517f08c379a0000000000000000000000000000000000000000000000000000000008152600401610d4b90612ad2565b60405180910390fd5b6000600660008481526020019081526020016000208054610d7490612e5c565b80601f0160208091040260200160405190810160405280929190818152602001828054610da090612e5c565b8015610ded5780601f10610dc257610100808354040283529160200191610ded565b820191906000526020600020905b815481529060010190602001808311610dd057829003601f168201915b505050505090506000610dfe6114dd565b9050600081511415610e14578192505050610e57565b600082511115610e49578082604051602001610e319291906128a8565b60405160208183030381529060405292505050610e57565b610e528461151a565b925050505b919050565b6000803411610e6a57600080fd5b610e7460076115c1565b6000610e806007611473565b9050610e8c84826115d7565b610e9681846117a5565b610ea08134610f3e565b8091505092915050565b6000600560008473ffffffffffffffffffffffffffffffffffffffff1673ffffffffffffffffffffffffffffffffffffffff16815260200190815260200160002060008373ffffffffffffffffffffffffffffffffffffffff1673ffffffffffffffffffffffffffffffffffffffff16815260200190815260200160002060009054906101000a900460ff16905092915050565b610f478261100c565b610f86576040517f08c379a0000000000000000000000000000000000000000000000000000000008152600401610f7d90612b12565b60405180910390fd5b8060086000848152602001908152602001600020819055505050565b60007f01ffc9a7000000000000000000000000000000000000000000000000000000007bffffffffffffffffffffffffffffffffffffffffffffffffffffffff1916827bffffffffffffffffffffffffffffffffffffffffffffffffffffffff1916149050919050565b60008073ffffffffffffffffffffffffffffffffffffffff166002600084815260200190815260200160002060009054906101000a900473ffffffffffffffffffffffffffffffffffffffff1673ffffffffffffffffffffffffffffffffffffffff1614159050919050565b600033905090565b816004600083815260200190815260200160002060006101000a81548173ffffffffffffffffffffffffffffffffffffffff021916908373ffffffffffffffffffffffffffffffffffffffff160217905550808273ffffffffffffffffffffffffffffffffffffffff166110f3836107a9565b73ffffffffffffffffffffffffffffffffffffffff167f8c5be1e5ebec7d5bd14f71427d1e84f3dd0314c0f7b2291e5b200ac8c7c3b92560405160405180910390a45050565b60006111448261100c565b611183576040517f08c379a000000000000000000000000000000000000000000000000000000000815260040161117a90612a12565b60405180910390fd5b600061118e836107a9565b90508073ffffffffffffffffffffffffffffffffffffffff168473ffffffffffffffffffffffffffffffffffffffff1614806111fd57508373ffffffffffffffffffffffffffffffffffffffff166111e58461058c565b73ffffffffffffffffffffffffffffffffffffffff16145b8061120e575061120d8185610eaa565b5b91505092915050565b8273ffffffffffffffffffffffffffffffffffffffff16611237826107a9565b73ffffffffffffffffffffffffffffffffffffffff161461128d576040517f08c379a000000000000000000000000000000000000000000000000000000000815260040161128490612b32565b60405180910390fd5b600073ffffffffffffffffffffffffffffffffffffffff168273ffffffffffffffffffffffffffffffffffffffff1614156112fd576040517f08c379a00000000000000000000000000000000000000000000000000000000081526004016112f4906129d2565b60405180910390fd5b611308838383611819565b611313600082611080565b6001600360008573ffffffffffffffffffffffffffffffffffffffff1673ffffffffffffffffffffffffffffffffffffffff16815260200190815260200160002060008282546113639190612d72565b925050819055506001600360008473ffffffffffffffffffffffffffffffffffffffff1673ffffffffffffffffffffffffffffffffffffffff16815260200190815260200160002060008282546113ba9190612ceb565b92505081905550816002600083815260200190815260200160002060006101000a81548173ffffffffffffffffffffffffffffffffffffffff021916908373ffffffffffffffffffffffffffffffffffffffff160217905550808273ffffffffffffffffffffffffffffffffffffffff168473ffffffffffffffffffffffffffffffffffffffff167fddf252ad1be2c89b69c2b068fc378daa952ba7f163c4a11628f55a4df523b3ef60405160405180910390a4505050565b600081600001549050919050565b61148c848484611217565b6114988484848461181e565b6114d7576040517f08c379a00000000000000000000000000000000000000000000000000000000081526004016114ce90612992565b60405180910390fd5b50505050565b60606040518060400160405280601c81526020017f68747470733a2f2f697066732e696e667572612e696f2f697066732f00000000815250905090565b60606115258261100c565b611564576040517f08c379a000000000000000000000000000000000000000000000000000000000815260040161155b90612b52565b60405180910390fd5b600061156e6114dd565b9050600081511161158e57604051806020016040528060008152506115b9565b80611598846119b5565b6040516020016115a99291906128a8565b6040516020818303038152906040525b915050919050565b6001816000016000828254019250508190555050565b600073ffffffffffffffffffffffffffffffffffffffff168273ffffffffffffffffffffffffffffffffffffffff161415611647576040517f08c379a000000000000000000000000000000000000000000000000000000000815260040161163e90612ab2565b60405180910390fd5b6116508161100c565b15611690576040517f08c379a0000000000000000000000000000000000000000000000000000000008152600401611687906129b2565b60405180910390fd5b61169c60008383611819565b6001600360008473ffffffffffffffffffffffffffffffffffffffff1673ffffffffffffffffffffffffffffffffffffffff16815260200190815260200160002060008282546116ec9190612ceb565b92505081905550816002600083815260200190815260200160002060006101000a81548173ffffffffffffffffffffffffffffffffffffffff021916908373ffffffffffffffffffffffffffffffffffffffff160217905550808273ffffffffffffffffffffffffffffffffffffffff16600073ffffffffffffffffffffffffffffffffffffffff167fddf252ad1be2c89b69c2b068fc378daa952ba7f163c4a11628f55a4df523b3ef60405160405180910390a45050565b6117ae8261100c565b6117ed576040517f08c379a00000000000000000000000000000000000000000000000000000000081526004016117e490612a92565b60405180910390fd5b80600660008481526020019081526020016000209080519060200190611814929190611bb3565b505050565b505050565b600061183f8473ffffffffffffffffffffffffffffffffffffffff16611b62565b156119a8578373ffffffffffffffffffffffffffffffffffffffff1663150b7a02611868611078565b8786866040518563ffffffff1660e01b815260040161188a94939291906128e7565b602060405180830381600087803b1580156118a457600080fd5b505af19250505080156118d557506040513d601f19601f820116820180604052508101906118d29190611fb3565b60015b611958573d8060008114611905576040519150601f19603f3d011682016040523d82523d6000602084013e61190a565b606091505b50600081511415611950576040517f08c379a000000000000000000000000000000000000000000000000000000000815260040161194790612992565b60405180910390fd5b805181602001fd5b63150b7a0260e01b7bffffffffffffffffffffffffffffffffffffffffffffffffffffffff1916817bffffffffffffffffffffffffffffffffffffffffffffffffffffffff1916149150506119ad565b600190505b949350505050565b606060008214156119fd576040518060400160405280600181526020017f30000000000000000000000000000000000000000000000000000000000000008152509050611b5d565b600082905060005b60008214611a2f578080611a1890612e8e565b915050600a82611a289190612d41565b9150611a05565b60008167ffffffffffffffff811115611a71577f4e487b7100000000000000000000000000000000000000000000000000000000600052604160045260246000fd5b6040519080825280601f01601f191660200182016040528015611aa35781602001600182028036833780820191505090505b5090505b60008514611b5657600182611abc9190612d72565b9150600a85611acb9190612ed7565b6030611ad79190612ceb565b60f81b818381518110611b13577f4e487b7100000000000000000000000000000000000000000000000000000000600052603260045260246000fd5b60200101907effffffffffffffffffffffffffffffffffffffffffffffffffffffffffffff1916908160001a905350600a85611b4f9190612d41565b9450611aa7565b8093505050505b919050565b600080823b905060008111915050919050565b604051806080016040528060008152602001600073ffffffffffffffffffffffffffffffffffffffff16815260200160008152602001606081525090565b828054611bbf90612e5c565b90600052602060002090601f016020900481019282611be15760008555611c28565b82601f10611bfa57805160ff1916838001178555611c28565b82800160010185558215611c28579182015b82811115611c27578251825591602001919060010190611c0c565b5b509050611c359190611c39565b5090565b5b80821115611c52576000816000905550600101611c3a565b5090565b6000611c69611c6484612bfe565b612bcd565b905082815260208101848484011115611c8157600080fd5b611c8c848285612e1a565b509392505050565b6000611ca7611ca284612c2e565b612bcd565b905082815260208101848484011115611cbf57600080fd5b611cca848285612e1a565b509392505050565b600081359050611ce181612fd5565b92915050565b600081359050611cf681612fec565b92915050565b600081359050611d0b81613003565b92915050565b600081519050611d2081613003565b92915050565b600082601f830112611d3757600080fd5b8135611d47848260208601611c56565b91505092915050565b600082601f830112611d6157600080fd5b8135611d71848260208601611c94565b91505092915050565b600081359050611d898161301a565b92915050565b600060208284031215611da157600080fd5b6000611daf84828501611cd2565b91505092915050565b60008060408385031215611dcb57600080fd5b6000611dd985828601611cd2565b9250506020611dea85828601611cd2565b9150509250929050565b600080600060608486031215611e0957600080fd5b6000611e1786828701611cd2565b9350506020611e2886828701611cd2565b9250506040611e3986828701611d7a565b9150509250925092565b60008060008060808587031215611e5957600080fd5b6000611e6787828801611cd2565b9450506020611e7887828801611cd2565b9350506040611e8987828801611d7a565b925050606085013567ffffffffffffffff811115611ea657600080fd5b611eb287828801611d26565b91505092959194509250565b60008060408385031215611ed157600080fd5b6000611edf85828601611cd2565b9250506020611ef085828601611ce7565b9150509250929050565b60008060408385031215611f0d57600080fd5b6000611f1b85828601611cd2565b925050602083013567ffffffffffffffff811115611f3857600080fd5b611f4485828601611d50565b9150509250929050565b60008060408385031215611f6157600080fd5b6000611f6f85828601611cd2565b9250506020611f8085828601611d7a565b9150509250929050565b600060208284031215611f9c57600080fd5b6000611faa84828501611cfc565b91505092915050565b600060208284031215611fc557600080fd5b6000611fd384828501611d11565b91505092915050565b600060208284031215611fee57600080fd5b6000611ffc84828501611d7a565b91505092915050565b6000806040838503121561201857600080fd5b600061202685828601611d7a565b925050602061203785828601611d7a565b9150509250929050565b600061204d8383612827565b905092915050565b61205e81612da6565b82525050565b61206d81612da6565b82525050565b600061207e82612c6e565b6120888185612c9c565b93508360208202850161209a85612c5e565b8060005b858110156120d657848403895281516120b78582612041565b94506120c283612c8f565b925060208a0199505060018101905061209e565b50829750879550505050505092915050565b6120f181612db8565b82525050565b600061210282612c79565b61210c8185612cad565b935061211c818560208601612e29565b61212581612fc4565b840191505092915050565b600061213b82612c84565b6121458185612cbe565b9350612155818560208601612e29565b61215e81612fc4565b840191505092915050565b600061217482612c84565b61217e8185612ccf565b935061218e818560208601612e29565b61219781612fc4565b840191505092915050565b60006121ad82612c84565b6121b78185612ce0565b93506121c7818560208601612e29565b80840191505092915050565b60006121e0603283612ccf565b91507f4552433732313a207472616e7366657220746f206e6f6e20455243373231526560008301527f63656976657220696d706c656d656e74657200000000000000000000000000006020830152604082019050919050565b6000612246601c83612ccf565b91507f4552433732313a20746f6b656e20616c7265616479206d696e746564000000006000830152602082019050919050565b6000612286602483612ccf565b91507f4552433732313a207472616e7366657220746f20746865207a65726f2061646460008301527f72657373000000000000000000000000000000000000000000000000000000006020830152604082019050919050565b60006122ec601983612ccf565b91507f4552433732313a20617070726f766520746f2063616c6c6572000000000000006000830152602082019050919050565b600061232c602c83612ccf565b91507f4552433732313a206f70657261746f7220717565727920666f72206e6f6e657860008301527f697374656e7420746f6b656e00000000000000000000000000000000000000006020830152604082019050919050565b6000612392603883612ccf565b91507f4552433732313a20617070726f76652063616c6c6572206973206e6f74206f7760008301527f6e6572206e6f7220617070726f76656420666f7220616c6c00000000000000006020830152604082019050919050565b60006123f8602a83612ccf565b91507f4552433732313a2062616c616e636520717565727920666f7220746865207a6560008301527f726f2061646472657373000000000000000000000000000000000000000000006020830152604082019050919050565b600061245e602983612ccf565b91507f4552433732313a206f776e657220717565727920666f72206e6f6e657869737460008301527f656e7420746f6b656e00000000000000000000000000000000000000000000006020830152604082019050919050565b60006124c4602e83612ccf565b91507f45524337323155524953746f726167653a2055524920736574206f66206e6f6e60008301527f6578697374656e7420746f6b656e0000000000000000000000000000000000006020830152604082019050919050565b600061252a602083612ccf565b91507f4552433732313a206d696e7420746f20746865207a65726f20616464726573736000830152602082019050919050565b600061256a603183612ccf565b91507f45524337323155524953746f726167653a2055524920717565727920666f722060008301527f6e6f6e6578697374656e7420746f6b656e0000000000000000000000000000006020830152604082019050919050565b60006125d0602c83612ccf565b91507f4552433732313a20617070726f76656420717565727920666f72206e6f6e657860008301527f697374656e7420746f6b656e00000000000000000000000000000000000000006020830152604082019050919050565b6000612636602e83612ccf565b91507f4552433732314d657461646174613a20507269636520736574206f66206e6f6e60008301527f6578697374656e7420746f6b656e0000000000000000000000000000000000006020830152604082019050919050565b600061269c602983612ccf565b91507f4552433732313a207472616e73666572206f6620746f6b656e2074686174206960008301527f73206e6f74206f776e00000000000000000000000000000000000000000000006020830152604082019050919050565b6000612702602f83612ccf565b91507f4552433732314d657461646174613a2055524920717565727920666f72206e6f60008301527f6e6578697374656e7420746f6b656e00000000000000000000000000000000006020830152604082019050919050565b6000612768602183612ccf565b91507f4552433732313a20617070726f76616c20746f2063757272656e74206f776e6560008301527f72000000000000000000000000000000000000000000000000000000000000006020830152604082019050919050565b60006127ce603183612ccf565b91507f4552433732313a207472616e736665722063616c6c6572206973206e6f74206f60008301527f776e6572206e6f7220617070726f7665640000000000000000000000000000006020830152604082019050919050565b600060808301600083015161283f600086018261288a565b5060208301516128526020860182612055565b506040830151612865604086018261288a565b506060830151848203606086015261287d8282612130565b9150508091505092915050565b61289381612e10565b82525050565b6128a281612e10565b82525050565b60006128b482856121a2565b91506128c082846121a2565b91508190509392505050565b60006020820190506128e16000830184612064565b92915050565b60006080820190506128fc6000830187612064565b6129096020830186612064565b6129166040830185612899565b818103606083015261292881846120f7565b905095945050505050565b6000602082019050818103600083015261294d8184612073565b905092915050565b600060208201905061296a60008301846120e8565b92915050565b6000602082019050818103600083015261298a8184612169565b905092915050565b600060208201905081810360008301526129ab816121d3565b9050919050565b600060208201905081810360008301526129cb81612239565b9050919050565b600060208201905081810360008301526129eb81612279565b9050919050565b60006020820190508181036000830152612a0b816122df565b9050919050565b60006020820190508181036000830152612a2b8161231f565b9050919050565b60006020820190508181036000830152612a4b81612385565b9050919050565b60006020820190508181036000830152612a6b816123eb565b9050919050565b60006020820190508181036000830152612a8b81612451565b9050919050565b60006020820190508181036000830152612aab816124b7565b9050919050565b60006020820190508181036000830152612acb8161251d565b9050919050565b60006020820190508181036000830152612aeb8161255d565b9050919050565b60006020820190508181036000830152612b0b816125c3565b9050919050565b60006020820190508181036000830152612b2b81612629565b9050919050565b60006020820190508181036000830152612b4b8161268f565b9050919050565b60006020820190508181036000830152612b6b816126f5565b9050919050565b60006020820190508181036000830152612b8b8161275b565b9050919050565b60006020820190508181036000830152612bab816127c1565b9050919050565b6000602082019050612bc76000830184612899565b92915050565b6000604051905081810181811067ffffffffffffffff82111715612bf457612bf3612f95565b5b8060405250919050565b600067ffffffffffffffff821115612c1957612c18612f95565b5b601f19601f8301169050602081019050919050565b600067ffffffffffffffff821115612c4957612c48612f95565b5b601f19601f8301169050602081019050919050565b6000819050602082019050919050565b600081519050919050565b600081519050919050565b600081519050919050565b6000602082019050919050565b600082825260208201905092915050565b600082825260208201905092915050565b600082825260208201905092915050565b600082825260208201905092915050565b600081905092915050565b6000612cf682612e10565b9150612d0183612e10565b9250827fffffffffffffffffffffffffffffffffffffffffffffffffffffffffffffffff03821115612d3657612d35612f08565b5b828201905092915050565b6000612d4c82612e10565b9150612d5783612e10565b925082612d6757612d66612f37565b5b828204905092915050565b6000612d7d82612e10565b9150612d8883612e10565b925082821015612d9b57612d9a612f08565b5b828203905092915050565b6000612db182612df0565b9050919050565b60008115159050919050565b60007fffffffff0000000000000000000000000000000000000000000000000000000082169050919050565b600073ffffffffffffffffffffffffffffffffffffffff82169050919050565b6000819050919050565b82818337600083830152505050565b60005b83811015612e47578082015181840152602081019050612e2c565b83811115612e56576000848401525b50505050565b60006002820490506001821680612e7457607f821691505b60208210811415612e8857612e87612f66565b5b50919050565b6000612e9982612e10565b91507fffffffffffffffffffffffffffffffffffffffffffffffffffffffffffffffff821415612ecc57612ecb612f08565b5b600182019050919050565b6000612ee282612e10565b9150612eed83612e10565b925082612efd57612efc612f37565b5b828206905092915050565b7f4e487b7100000000000000000000000000000000000000000000000000000000600052601160045260246000fd5b7f4e487b7100000000000000000000000000000000000000000000000000000000600052601260045260246000fd5b7f4e487b7100000000000000000000000000000000000000000000000000000000600052602260045260246000fd5b7f4e487b7100000000000000000000000000000000000000000000000000000000600052604160045260246000fd5b6000601f19601f8301169050919050565b612fde81612da6565b8114612fe957600080fd5b50565b612ff581612db8565b811461300057600080fd5b50565b61300c81612dc4565b811461301757600080fd5b50565b61302381612e10565b811461302e57600080fd5b5056fea2646970667358221220f5c006f47b4541fd21c50ec5a88952ff76801fa6eadcd75abc6f94e9084e23da64736f6c63430008000033",
  "immutableReferences": {},
  "source": "// SPDX-License-Identifier: MIT\r\npragma solidity ^0.8.0;\r\n\r\nimport \"@openzeppelin/contracts/token/ERC721/ERC721.sol\";\r\nimport \"@openzeppelin/contracts/utils/Counters.sol\";\r\nimport \"@openzeppelin/contracts/token/ERC721/extensions/ERC721URIStorage.sol\";\r\n\r\ncontract Orbs is ERC721URIStorage{\r\n    using Counters for Counters.Counter;\r\n    Counters.Counter private _tokenIds;\r\n\r\n\r\n    mapping (uint256 => uint256) private _tokenPrices;\r\n\r\n    struct OrbProps {\r\n        uint256 id;\r\n        address owner;\r\n        uint256 price;\r\n        string uri;\r\n    }\r\n\r\n    constructor() ERC721(\"Orbs\", \"ORBS\") {\r\n    }\r\n    \r\n\r\n    function getAllOrbs () public view virtual returns( OrbProps[] memory ) {\r\n        OrbProps[] memory tokens = new OrbProps[](_tokenIds.current());\r\n        uint256 counter = 0;\r\n\r\n        for(uint i = 1; i < _tokenIds.current() + 1; i++) {\r\n                address owner = ownerOf(i);\r\n                OrbProps memory token = OrbProps(i,owner, _tokenPrices[i], tokenURI(i));\r\n                tokens[counter] = token;\r\n                counter++;\r\n        }\r\n        return tokens;\r\n    }\r\n    \r\n    /**\r\n     * @dev Base URI for computing {tokenURI}. If set, the resulting URI for each\r\n     * token will be the concatenation of the `baseURI` and the `tokenId`. Empty\r\n     * by default, can be overriden in child contracts.\r\n     */\r\n    function _baseURI() override internal view virtual returns (string memory) {\r\n        return \"https://ipfs.infura.io/ipfs/\";\r\n    }\r\n\r\n    /**\r\n     * @dev sets maps token to its price\r\n     * @param tokenId uint256 token ID (token number)\r\n     * @param _price uint256 token price\r\n     * \r\n     * Requirements: \r\n     * `tokenId` must exist\r\n     */\r\n    function setTokenPrice(uint256 tokenId, uint256 _price) public {\r\n        require(_exists(tokenId), \"ERC721Metadata: Price set of nonexistent token\");\r\n        _tokenPrices[tokenId] = _price;\r\n    }\r\n    \r\n\r\n    // 0 -> ['tone','note','time','hashmark'] ...\r\n    function mintCollectable(address _owner, string memory _tokenURI)\r\n        public payable\r\n        returns (uint256)\r\n    {\r\n        require(msg.value > 0);\r\n        _tokenIds.increment();\r\n        uint256 newItemId = _tokenIds.current();\r\n        _mint(_owner, newItemId);\r\n        _setTokenURI(newItemId, _tokenURI);\r\n        setTokenPrice(newItemId,msg.value);\r\n        return newItemId;\r\n    }\r\n\r\n    receive() external payable {}\r\n\r\n\r\n}",
  "sourcePath": "C:/Users/Usuario/Desktop/ORBS_PROJECT/OrbsContract/contracts/Orbs.sol",
  "compiler": {
    "name": "solc",
    "version": "0.8.0+commit.c7dfd78e.Emscripten.clang"
  },
  "schemaVersion": "3.4.1",
  "updatedAt": "2021-07-27T00:03:16.970Z",
  "networkType": "ethereum",
  "devdoc": {
    "kind": "dev",
    "methods": {
      "approve(address,uint256)": {
        "details": "See {IERC721-approve}."
      },
      "balanceOf(address)": {
        "details": "See {IERC721-balanceOf}."
      },
      "getApproved(uint256)": {
        "details": "See {IERC721-getApproved}."
      },
      "isApprovedForAll(address,address)": {
        "details": "See {IERC721-isApprovedForAll}."
      },
      "name()": {
        "details": "See {IERC721Metadata-name}."
      },
      "ownerOf(uint256)": {
        "details": "See {IERC721-ownerOf}."
      },
      "safeTransferFrom(address,address,uint256)": {
        "details": "See {IERC721-safeTransferFrom}."
      },
      "safeTransferFrom(address,address,uint256,bytes)": {
        "details": "See {IERC721-safeTransferFrom}."
      },
      "setApprovalForAll(address,bool)": {
        "details": "See {IERC721-setApprovalForAll}."
      },
      "setTokenPrice(uint256,uint256)": {
        "details": "sets maps token to its price",
        "params": {
          "_price": "uint256 token price  Requirements:  `tokenId` must exist",
          "tokenId": "uint256 token ID (token number)"
        }
      },
      "supportsInterface(bytes4)": {
        "details": "See {IERC165-supportsInterface}."
      },
      "symbol()": {
        "details": "See {IERC721Metadata-symbol}."
      },
      "tokenURI(uint256)": {
        "details": "See {IERC721Metadata-tokenURI}."
      },
      "transferFrom(address,address,uint256)": {
        "details": "See {IERC721-transferFrom}."
      }
    },
    "version": 1
  },
  "userdoc": {
    "kind": "user",
    "methods": {},
    "version": 1
  }
}